{
  "_format": "hh-sol-artifact-1",
  "contractName": "Cert",
  "sourceName": "contracts/Certi.sol",
  "abi": [
    {
      "inputs": [],
      "stateMutability": "nonpayable",
      "type": "constructor"
    },
    {
      "inputs": [
        {
          "internalType": "uint256",
          "name": "_id",
          "type": "uint256"
        }
      ],
      "name": "Certificates",
      "outputs": [
        {
          "internalType": "string",
          "name": "name",
          "type": "string"
        },
        {
          "internalType": "string",
          "name": "course",
          "type": "string"
        },
        {
          "internalType": "string",
          "name": "grade",
          "type": "string"
        },
        {
          "internalType": "string",
          "name": "date",
          "type": "string"
        },
        {
          "internalType": "bool",
          "name": "Exist",
          "type": "bool"
        }
      ],
      "stateMutability": "view",
      "type": "function"
    },
    {
      "inputs": [
        {
          "internalType": "uint256",
          "name": "_id",
          "type": "uint256"
        },
        {
          "internalType": "string",
          "name": "_name",
          "type": "string"
        },
        {
          "internalType": "string",
          "name": "_course",
          "type": "string"
        },
        {
          "internalType": "string",
          "name": "_grade",
          "type": "string"
        },
        {
          "internalType": "string",
          "name": "_date",
          "type": "string"
        }
      ],
      "name": "issue",
      "outputs": [],
      "stateMutability": "nonpayable",
      "type": "function"
    }
  ],
  "bytecode": "0x6080604052348015600f57600080fd5b50336000806101000a81548173ffffffffffffffffffffffffffffffffffffffff021916908373ffffffffffffffffffffffffffffffffffffffff160217905550610c3c8061005f6000396000f3fe608060405234801561001057600080fd5b50600436106100365760003560e01c80639622c8361461003b578063d1e7be261461006f575b600080fd5b610055600480360381019061005091906104e9565b61008b565b6040516100669594939291906105c1565b60405180910390f35b61008960048036038101906100849190610765565b6102ee565b005b60016020528060005260406000206000915090508060000180546100ae9061087f565b80601f01602080910402602001604051908101604052809291908181526020018280546100da9061087f565b80156101275780601f106100fc57610100808354040283529160200191610127565b820191906000526020600020905b81548152906001019060200180831161010a57829003601f168201915b50505050509080600101805461013c9061087f565b80601f01602080910402602001604051908101604052809291908181526020018280546101689061087f565b80156101b55780601f1061018a576101008083540402835291602001916101b5565b820191906000526020600020905b81548152906001019060200180831161019857829003601f168201915b5050505050908060020180546101ca9061087f565b80601f01602080910402602001604051908101604052809291908181526020018280546101f69061087f565b80156102435780601f1061021857610100808354040283529160200191610243565b820191906000526020600020905b81548152906001019060200180831161022657829003601f168201915b5050505050908060030180546102589061087f565b80601f01602080910402602001604051908101604052809291908181526020018280546102849061087f565b80156102d15780601f106102a6576101008083540402835291602001916102d1565b820191906000526020600020905b8154815290600101906020018083116102b457829003601f168201915b5050505050908060040160009054906101000a900460ff16905085565b60008054906101000a900473ffffffffffffffffffffffffffffffffffffffff1673ffffffffffffffffffffffffffffffffffffffff163373ffffffffffffffffffffffffffffffffffffffff161461037c576040517f08c379a0000000000000000000000000000000000000000000000000000000008152600401610373906108fc565b60405180910390fd5b6001600086815260200190815260200160002060040160009054906101000a900460ff16156103e0576040517f08c379a00000000000000000000000000000000000000000000000000000000081526004016103d790610968565b60405180910390fd5b6040518060a00160405280858152602001848152602001838152602001828152602001600115158152506001600087815260200190815260200160002060008201518160000190816104329190610b34565b5060208201518160010190816104489190610b34565b50604082015181600201908161045e9190610b34565b5060608201518160030190816104749190610b34565b5060808201518160040160006101000a81548160ff0219169083151502179055509050505050505050565b6000604051905090565b600080fd5b600080fd5b6000819050919050565b6104c6816104b3565b81146104d157600080fd5b50565b6000813590506104e3816104bd565b92915050565b6000602082840312156104ff576104fe6104a9565b5b600061050d848285016104d4565b91505092915050565b600081519050919050565b600082825260208201905092915050565b60005b83811015610550578082015181840152602081019050610535565b60008484015250505050565b6000601f19601f8301169050919050565b600061057882610516565b6105828185610521565b9350610592818560208601610532565b61059b8161055c565b840191505092915050565b60008115159050919050565b6105bb816105a6565b82525050565b600060a08201905081810360008301526105db818861056d565b905081810360208301526105ef818761056d565b90508181036040830152610603818661056d565b90508181036060830152610617818561056d565b905061062660808301846105b2565b9695505050505050565b600080fd5b600080fd5b7f4e487b7100000000000000000000000000000000000000000000000000000000600052604160045260246000fd5b6106728261055c565b810181811067ffffffffffffffff821117156106915761069061063a565b5b80604052505050565b60006106a461049f565b90506106b08282610669565b919050565b600067ffffffffffffffff8211156106d0576106cf61063a565b5b6106d98261055c565b9050602081019050919050565b82818337600083830152505050565b6000610708610703846106b5565b61069a565b90508281526020810184848401111561072457610723610635565b5b61072f8482856106e6565b509392505050565b600082601f83011261074c5761074b610630565b5b813561075c8482602086016106f5565b91505092915050565b600080600080600060a08688031215610781576107806104a9565b5b600061078f888289016104d4565b955050602086013567ffffffffffffffff8111156107b0576107af6104ae565b5b6107bc88828901610737565b945050604086013567ffffffffffffffff8111156107dd576107dc6104ae565b5b6107e988828901610737565b935050606086013567ffffffffffffffff81111561080a576108096104ae565b5b61081688828901610737565b925050608086013567ffffffffffffffff811115610837576108366104ae565b5b61084388828901610737565b9150509295509295909350565b7f4e487b7100000000000000000000000000000000000000000000000000000000600052602260045260246000fd5b6000600282049050600182168061089757607f821691505b6020821081036108aa576108a9610850565b5b50919050565b7f756e617574686f72697a65642061636365737300000000000000000000000000600082015250565b60006108e6601383610521565b91506108f1826108b0565b602082019050919050565b60006020820190508181036000830152610915816108d9565b9050919050565b7f5f696420697320616c7265616479204578697374730000000000000000000000600082015250565b6000610952601583610521565b915061095d8261091c565b602082019050919050565b6000602082019050818103600083015261098181610945565b9050919050565b60008190508160005260206000209050919050565b60006020601f8301049050919050565b600082821b905092915050565b6000600883026109ea7fffffffffffffffffffffffffffffffffffffffffffffffffffffffffffffffff826109ad565b6109f486836109ad565b95508019841693508086168417925050509392505050565b6000819050919050565b6000610a31610a2c610a27846104b3565b610a0c565b6104b3565b9050919050565b6000819050919050565b610a4b83610a16565b610a5f610a5782610a38565b8484546109ba565b825550505050565b600090565b610a74610a67565b610a7f818484610a42565b505050565b5b81811015610aa357610a98600082610a6c565b600181019050610a85565b5050565b601f821115610ae857610ab981610988565b610ac28461099d565b81016020851015610ad1578190505b610ae5610add8561099d565b830182610a84565b50505b505050565b600082821c905092915050565b6000610b0b60001984600802610aed565b1980831691505092915050565b6000610b248383610afa565b9150826002028217905092915050565b610b3d82610516565b67ffffffffffffffff811115610b5657610b5561063a565b5b610b60825461087f565b610b6b828285610aa7565b600060209050601f831160018114610b9e5760008415610b8c578287015190505b610b968582610b18565b865550610bfe565b601f198416610bac86610988565b60005b82811015610bd457848901518255600182019150602085019450602081019050610baf565b86831015610bf15784890151610bed601f891682610afa565b8355505b6001600288020188555050505b50505050505056fea264697066735822122011c80cb6dc06f624e6773f19ae28b9dcacb9985e38185b5d48b65a87f5400c0b64736f6c634300081c0033",
  "linkReferences": {},
  "deployedLinkReferences": {}
}